{
  "contractName": "Geometry",
  "abi": [
    {
      "constant": true,
      "inputs": [
        {
          "name": "",
          "type": "uint256"
        }
      ],
      "name": "points",
      "outputs": [
        {
          "name": "x",
          "type": "uint256"
        },
        {
          "name": "y",
          "type": "uint256"
        }
      ],
      "payable": false,
      "stateMutability": "view",
      "type": "function"
    },
    {
      "anonymous": false,
      "inputs": [
        {
          "indexed": false,
          "name": "x",
          "type": "uint256"
        },
        {
          "indexed": false,
          "name": "y",
          "type": "uint256"
        },
        {
          "indexed": false,
          "name": "id",
          "type": "uint256"
        }
      ],
      "name": "NewPoint",
      "type": "event"
    },
    {
      "anonymous": false,
      "inputs": [
        {
          "indexed": false,
          "name": "x",
          "type": "uint256"
        },
        {
          "indexed": false,
          "name": "y",
          "type": "uint256"
        },
        {
          "indexed": false,
          "name": "id",
          "type": "uint256"
        }
      ],
      "name": "XChanged",
      "type": "event"
    },
    {
      "anonymous": false,
      "inputs": [
        {
          "indexed": false,
          "name": "x",
          "type": "uint256"
        },
        {
          "indexed": false,
          "name": "y",
          "type": "uint256"
        },
        {
          "indexed": false,
          "name": "id",
          "type": "uint256"
        }
      ],
      "name": "YChanged",
      "type": "event"
    },
    {
      "constant": false,
      "inputs": [
        {
          "name": "_x",
          "type": "uint256"
        },
        {
          "name": "_y",
          "type": "uint256"
        }
      ],
      "name": "createPoint",
      "outputs": [],
      "payable": false,
      "stateMutability": "nonpayable",
      "type": "function"
    },
    {
      "constant": false,
      "inputs": [
        {
          "name": "_pointId",
          "type": "uint256"
        },
        {
          "name": "_x",
          "type": "uint256"
        }
      ],
      "name": "updateX",
      "outputs": [],
      "payable": false,
      "stateMutability": "nonpayable",
      "type": "function"
    },
    {
      "constant": false,
      "inputs": [
        {
          "name": "_pointId",
          "type": "uint256"
        },
        {
          "name": "_y",
          "type": "uint256"
        }
      ],
      "name": "updateY",
      "outputs": [],
      "payable": false,
      "stateMutability": "nonpayable",
      "type": "function"
    }
  ],
  "bytecode": "0x6060604052341561000f57600080fd5b61045c8061001e6000396000f300606060405260043610610062576000357c0100000000000000000000000000000000000000000000000000000000900463ffffffff16806315c281bd14610067578063186dfe9014610093578063661b1159146100bf5780639799b4e7146100eb575b600080fd5b341561007257600080fd5b6100916004808035906020019091908035906020019091905050610129565b005b341561009e57600080fd5b6100bd60048080359060200190919080359060200190919050506101d0565b005b34156100ca57600080fd5b6100e960048080359060200190919080359060200190919050506102a9565b005b34156100f657600080fd5b61010c6004808035906020019091905050610382565b604051808381526020018281526020019250505060405180910390f35b600060016000805480600101828161014191906103b5565b916000526020600020906002020160006040805190810160405280888152602001878152509091909150600082015181600001556020820151816001015550500390507f2bacc90371a678e39af9acdd05c3679eed212d8d2cd7b5b4a62484dab0f0c00883838360405180848152602001838152602001828152602001935050505060405180910390a1505050565b6101d86103e7565b6000838154811015156101e757fe5b9060005260206000209060020201604080519081016040529081600082015481526020016001820154815250509050818160000181815250508060008481548110151561023057fe5b906000526020600020906002020160008201518160000155602082015181600101559050507fe8efaed40c8528709f01c424eebd3d07f39fea1026f021c01bdcebdc5da62a25816000015182602001518560405180848152602001838152602001828152602001935050505060405180910390a1505050565b6102b16103e7565b6000838154811015156102c057fe5b9060005260206000209060020201604080519081016040529081600082015481526020016001820154815250509050818160200181815250508060008481548110151561030957fe5b906000526020600020906002020160008201518160000155602082015181600101559050507fc0527cad2fef73a457af38fe11cbd989ee6b9787f117b821f2c41ecfdea75fdc816000015182602001518560405180848152602001838152602001828152602001935050505060405180910390a1505050565b60008181548110151561039157fe5b90600052602060002090600202016000915090508060000154908060010154905082565b8154818355818115116103e2576002028160020283600052602060002091820191016103e19190610401565b5b505050565b604080519081016040528060008152602001600081525090565b61042d91905b8082111561042957600080820160009055600182016000905550600201610407565b5090565b905600a165627a7a72305820461012278999059a56d3c194b15c2c73f73b2a2c738bf2ba4046665f8d386e560029",
  "source": "pragma solidity ^0.4.21;\n\ncontract Geometry {\n\n    event NewPoint(uint256 x, uint256 y, uint256 id);\n    event XChanged(uint256 x, uint256 y, uint256 id);\n    event YChanged(uint256 x, uint256 y, uint256 id);\n    \n    struct Point {\n        uint256 x;\n        uint256 y;\n    }\n\n    Point[] public points;\n\n    function createPoint(uint256 _x, uint256 _y) public {\n        uint256 pointId = points.push(Point(_x, _y))-1;\n        emit NewPoint(_x, _y, pointId);\n    }\n\n    function updateX(uint256 _pointId, uint256 _x) public {\n        Point memory auxPoint = points[_pointId];\n        auxPoint.x = _x;\n        points[_pointId] = auxPoint;\n        emit XChanged(auxPoint.x, auxPoint.y, _pointId);\n    }\n\n    function updateY(uint256 _pointId, uint256 _y) public {\n        Point memory auxPoint = points[_pointId];\n        auxPoint.y = _y;\n        points[_pointId] = auxPoint;\n        emit YChanged(auxPoint.x, auxPoint.y, _pointId);\n    }\n\n}",
  "sourcePath": "/Users/Jaime/Desktop/QuorumWorkshop/truffle/contracts/Geometry.sol",
  "compiler": {
    "name": "solc",
    "version": "0.4.21+commit.dfe3193c.Emscripten.clang"
  },
  "schemaVersion": "2.0.0",
  "updatedAt": "2018-05-23T09:20:40.147Z"
}